:020000040800F2
:1000000000100020F92700084D0F0008510F0008CC
:1000100000000000000000000000000000000000E0
:10002000000000000000000000000000550F000864
:100030000000000000000000590F00085D0F0008DC
:100040004928000800000000492800089105000820
:1000500049280008492800084928000849280008BC
:100060000000000049280008492800084928000825
:100070004928000849280008492800080000000015
:10008000492800080000000000000000492800087E
:1000900000000000492800084928000849280008F5
:1000A000000000004928000800000000690F000857
:1000B0000000000000000000000000000000000040
:1000C00010B5064C2378002B07D1054B002B02D02E
:1000D000044800E000BF0123237010BD2800002069
:1000E00000000000B8280008044B10B5002B03D016
:1000F0000349044800E000BF10BDC04600000000F6
:100100002C000020B8280008002243088B4274D33A
:1001100003098B425FD3030A8B4244D3030B8B4208
:1001200028D3030C8B420DD3FF22090212BA030C11
:100130008B4202D31212090265D0030B8B4219D3F2
:1001400000E0090AC30B8B4201D3CB03C01A524112
:10015000830B8B4201D38B03C01A5241430B8B425A
:1001600001D34B03C01A5241030B8B4201D30B0343
:10017000C01A5241C30A8B4201D3CB02C01A52416A
:10018000830A8B4201D38B02C01A5241430A8B422D
:1001900001D34B02C01A5241030A8B4201D30B0216
:1001A000C01A5241CDD2C3098B4201D3CB01C01A30
:1001B000524183098B4201D38B01C01A524143093A
:1001C0008B4201D34B01C01A524103098B4201D328
:1001D0000B01C01A5241C3088B4201D3CB00C01A95
:1001E000524183088B4201D38B00C01A524143080D
:1001F0008B4201D34B00C01A5241411A00D2014632
:10020000524110467047FFE701B5002000F006F8A4
:1002100002BDC0460029F7D076E770477047C04658
:1002200010B50D4C2378002B0ED10C4B1860002913
:100230000BD10B4B19608021902001228900C00551
:1002400001F000FA0123237010BD8842F1D9044B5C
:1002500040001860EFE7C046440000200000002086
:100260000400002010B5174B1A78012A00D010BDE9
:10027000154A1168002911D0144802680132026041
:1002800091420BD800228021026090201A70104BFE
:100290008900C0051A6001F0D5F9E8E70D4B1A682E
:1002A000002AE4D00A4C2368013323609A42DED24C
:1002B000802190208900C00501F0CAF90023236045
:1002C000D5E7C04644000020040000204C00002078
:1002D00048000020000000200023FA2190200A4A54
:1002E00010B51370094A49001160094A4918116094
:1002F000084AE9391360084AFF391360C005002233
:1003000001F0A0F910BDC04644000020000000200C
:1003100004000020480000204C00002010B500F030
:1003200071FD00F08FFD00F0BDF900F0A5FBFFF7B7
:1003300099FF00F017FD00F06FF810BD70B590B098
:100340006B460224FD266A461E705C70FF25012361
:10035000052168469370D470157100F049FE322073
:1003600000F0E8FE684600F04FFE6B466A461E70DD
:100370005C700A230521937068460133D3701571B0
:1003800000F036FE322000F0D5FE684600F03CFE5C
:100390001A4B04216846009300F02AFE322000F038
:1003A000C9FE684600F030FEFA20800000F0C2FE70
:1003B000134B04216846009300F01AFE642000F0FD
:1003C000B9FE684600F020FE2E280BD00023002046
:1003D0000C4A13700C4A13700C4A13700C4A1360C9
:1003E00010B070BD6B461B78FB2BEFD16B462D22F6
:1003F000591C084802F04EFAE8E7C046FD0112FF1A
:10040000FE01FEFF55000020560000205400002091
:1004100050000020F800002030B50A4B1B78012B5B
:1004200000D030BD084908780028FAD1074C084DA3
:1004300022680132AA4202D920600B70F1E72260E3
:10044000EFE7C04655000020540000205000002077
:10045000CF07000070B50F4C2378012B00D070BD82
:100460000D4D2B78012BFAD10C4E307800F070FB3B
:100470000B4A3078C82100F0C1FAFFF72DFF084978
:10048000C820FFF7CDFE0023064A23702B701360AF
:10049000E5E7C0465500002054000020560000202B
:1004A000B80B00005000002030B591B0022922D0D6
:1004B000052901D011B030BD0378BF2BFAD100233C
:1004C0002C4A13702C4A13702C4A13604378022B69
:1004D000F0D18378012BEDD1012000F039FB284ABF
:1004E000C821012000F08AFAFFF7F6FE2449C8204F
:1004F000FFF796FEDEE70378FF2BDBD14478002C74
:1005000013D0FF2C2BD0AA2CD4D101221D4B0020BC
:100510005A7000221C4B1A7000F01AFBFA22C821F4
:100520009200002000F06AFAC4E7164B00205C70CD
:1005300000F00EFBFA2100224900002000F05EFAD4
:10054000114D2B780133DBB22B70042BB2D90F4B3A
:1005500004216846009300F04BFD2C70AAE70020B0
:1005600000F0F6FAFA2232219200002000F046FA5A
:10057000A0E7C04655000020540000205000002095
:10058000B80B0000F800002057000020FD0112FF0A
:1005900010B500F087FE10BDF0B587B01422002121
:1005A00001A802F080F98020A8259024154A800235
:1005B0005169E405014351615369AD0003400022D4
:1005C000009329002000009B012601F03BF8002742
:1005D0000195022501A9200002960395049700F0D9
:1005E00021FF102301A9200001930297039600F038
:1005F00019FF412301A920000193039500F012FF88
:1006000007B0F0BD001002400748084B10B503606A
:1006100000234360064BC360836001F021F800288B
:1006200001D000F08BFB10BD2C01002000300040F9
:10063000FF0F000010B5024801F040F810BDC046A1
:100640002C010020F8B50125114B0C001D70002372
:100650000026104A104F1370104A3860138000F0C3
:10066000BFF93B6822681A6062685A60A268DA6063
:10067000E2681E749A6022695A6162699A61A2698D
:100680001A62E269DA6124229E54054B1D70F8BD9E
:1006900058000020590000205C000020600000206D
:1006A000620000204D4B70B51B78012B00D070BD4F
:1006B00090200121C00500F0BFFF04009020102110
:1006C000C00500F0B9FF4342434145495B000A7849
:1006D0002343DBB2062AEAD8424892008258974662
:1006E000414A1378D80703D5402440480068047471
:1006F0009B0704D53D4B402418682423C454002391
:10070000137001220A703A4A1380D0E7002B5ED0A2
:10071000374A1188013189B211806429C7D9D907B4
:1007200005D5102431490868017C214301749B07D9
:1007300006D5242110242D4B1868435C23434354D1
:1007400000231380B3E7002B41D0FA24284AA400E9
:100750001088013080B21080A042A8D9D80705D5F2
:10076000202522480468207C284320749B0706D556
:10077000242020251D4B1C68235C2B432354052378
:100780000B700023138092E7002B23D0DA0706D5E5
:10079000164A10688022047C5242224302749A074F
:1007A00007D5124A242014688022255C52422A432D
:1007B00022540D4A137004230B7078E703230B7047
:1007C00075E7002B00D172E702230B706FE7062359
:1007D0000B706CE701230B7069E7C04662000020D4
:1007E00058000020F0280008590000205C0000207C
:1007F00060000020F8B5CE464746284B80B51B78F0
:10080000012B03D00CBC90469946F8BD0024244D22
:100810007E33296898466F3B99460B191E7C20272A
:1008200070B2320000282CDB374208D0586800280C
:1008300003D0804729680B191A7CBA431A744846BA
:10084000304209D09868002803D0804729680B19E6
:100850001A7C484682431A74700609D5D868002865
:1008600003D0804729680B191A7C402082431A74F0
:100870001434282CC6D00B191E7C70B2320000280C
:10088000D2DA1A68002A07D0904729680B191A7C17
:10089000404602401A74C7E73200F9E762000020C0
:1008A0005C0000207047C04670B51E4B86B05C7877
:1008B000012C01D006B070BD1B4E3578002DF9D14A
:1008C000FC2301A80370F03B4370093B8370013B9C
:1008D000C370AD338371A93B0E21C371A73305717A
:1008E0004571047245728572C5720573437300F0D9
:1008F0007FFB0E4B00201D700D4B34701D700D4B97
:100900001D6000F025F9FA2264219200002000F019
:1009100075F8FFF7E1FCFA2164204900FFF780FC3D
:10092000C8E7C046F800002055000020560000200F
:10093000540000205000002070B51F4B86B05C783A
:10094000012C01D006B070BD1C4E3578002DF9D1B8
:10095000FC23AF2201A80370F03B4370093B837076
:10096000013BC37003723833C3725E330E21827150
:100970000373A93A1533C2710571457145728572C9
:10098000437300F035FB0E4B01201C700D4B34708F
:100990001D700D4B1D6000F0DBF8FA2264219200FF
:1009A000012000F02BF8FFF797FCFA2164204900A2
:1009B000FFF736FCC6E7C046F800002055000020CF
:1009C0005600002054000020500000207047C04610
:1009D0007047C0467047C0467047C0467047C04623
:1009E0007047C04610B503480349FFF72BFE0020AF
:1009F00010BDC046640000200C29000810B5002876
:100A00000FD0012822D1164C2378002B1ED1154B74
:100A10001960002A1BD0914219D9134B4900196063
:100A200017E0124C2378002B10D1114B1960002ACB
:100A300012D0914210D90F4B490019600122802138
:100A40009020C00500F0FEFD0123237010BD064B71
:100A50001A6001222021F3E7064B1A60EEE7C04638
:100A60008C000020080000200C00002098000020CE
:100A7000100000201400002010B52B4B1A78012A1A
:100A80002BD02A4B1A78012A00D010BD284A1168B1
:100A9000002910D0274802680132026091420AD82A
:100AA0000022026090201A70234B2021C0051A609A
:100AB00000F0C8FDE9E7214B1A68002AE5D01E4C7A
:100AC0002368013323609A42DFD290202021C005A1
:100AD00000F0BEFD00232360D7E7194A1168002902
:100AE00011D1184B1B68002BCBD0174C2268013258
:100AF00022609342C5D290208021C00500F0A8FD5D
:100B000000232360BDE71148026801320260914270
:100B1000E7D80022026090201A700B4B8021C0059C
:100B20001A6000F08FFDACE7980000208C000020D8
:100B30000C000020940000209000002008000020FD
:100B400014000020100000209C000020A0000020C5
:100B500010B5002816D0012813D10023FA219020C7
:100B6000124A49001370124AC0051160114A49180F
:100B70001160114A20211360104A1360002200F016
:100B800061FD10BDFA220E4B520018700D4B8021F2
:100B90001A600D4B92181A600C4B002218600C4B17
:100BA00018609020C00500F04DFDEAE78C000020A1
:100BB000080000200C00002090000020940000207D
:100BC0009800002010000020140000209C0000204D
:100BD000A0000020006040607047C04603680160CC
:100BE000486059600B607047F0B5C64600B5164BBB
:100BF00090B0984203D010B004BC9046F0BD00F015
:100C0000F9F8124E300000F07DF983B207009846E3
:100C1000002BF0D06C465D1EADB201356D44210055
:100C20003000013400F05EF9A542F8D14246084B8D
:100C300069461A803A04120C064801F02BFE414620
:100C40006846FFF731FCD6E7440100203C01002054
:100C5000F40000205C01002010B594B03022002187
:100C600008A801F020FE10220021684601F01BFEBA
:100C70000021102204A801F016FE0A230893093B64
:100C80000B930F93A023102202249B0308A80C921D
:100C90001094129300F01AFD0723019400240121FF
:100CA000684600930294039400F06AFF054B04A881
:100CB000049380239B000694059301F05DF814B023
:100CC00010BDC0460100010010B500F011FAFFF799
:100CD000C3FFFFF761FC164800F0E4F800F06CF881
:100CE0000023144A0521144800F06EF8E120400268
:100CF00000F062F9FA22642192000020FFF77EFEE4
:100D0000FA2132208900FFF78BFAFFF76BFEFFF71D
:100D100015FB00F015F8FFF777FCFFF78BFCFFF7EA
:100D200069FDFFF797FB0A2000F004FAF5E7C046DB
:100D30003C010020E90B00084401002072B6FEE7E8
:100D400090200122054B10B54021C0051A7000F01B
:100D500073FC034B1870002010BDC046A800002093
:100D6000A900002070B5114B1B78012B00D070BD7D
:100D700090204021C00500F05FFC0D4D2B78834290
:100D800010D0FA220B4CD200236801332360934227
:100D9000EDD990204021C00500F04EFC00232870C2
:100DA0002360E4E70022034B1A60E0E7A80000207C
:100DB000A9000020A400002010B50248FFF70AFF98
:100DC00010BDC046AC00002010B501604160C2609B
:100DD000002B00D002230100038110310148FFF7EE
:100DE000FDFE10BDAC0000200122038913430381E6
:100DF0007047C0460122038993430381436803601F
:100E00007047C04670B50E4C012563680426A342A6
:100E100005D113E0314311815B68A3420ED01A0063
:100E2000103A11890D42F7D010680028F2D001382D
:100E300010600028EED05B68A342F0D170BDC046C0
:100E4000AC000020F8B5CE464746154E80B5746814
:100E5000B44221D005239946033B0427984602E07B
:100E60006468B44218D02500103D2B891F42F7D08A
:100E70006A6828002A604A4693432B81EB689847AA
:100E800042462B891A42EBD06A6864682A600122C4
:100E900013432B81B442E6D10CBC90469946F8BD71
:100EA000AC00002070B5054D040040222800002150
:100EB00001F0F9FC00232560636070BDB4000020E0
:100EC0003F2330B5C4888588621C1A40AA4207D0E7
:100ED00002681155C28801321340C380012030BD21
:100EE0000020FCE78388C2889A4209D00268D35C5C
:100EF0000B703F23828801321340838001207047AA
:100F00000020FCE7C38880881B1A3F204033DA1793
:100F1000920E9B181840801A7047C04601220A4B57
:100F200082B099691143996199690A4080210092C0
:100F3000009ADA6949050A43DA61DB690B400193DB
:100F4000019B02B07047C04600100240FEE7C04659
:100F5000FEE7C0467047C0467047C04610B500F077
:100F6000D7F800F053F910BD30B50F4C83B02368AB
:100F7000DB699B0613D56B46DD1DFA2301229B001E
:100F80002900200001F076F829780848FFF798FF3B
:100F9000074D2800FFF72EFF2800FFF725FF200050
:100FA00001F05AF903B030BD9C0100203C01002043
:100FB000440100207047C04610B50B4B0B4C0C226F
:100FC0002360002360602000A360E360236162610E
:100FD000A361E3612362636201F052FB2021226876
:100FE00013680B43136010BD003801409C010020C2
:100FF000FA2310B50A009B000100024800F04EFFE2
:1010000010BDC0469C01002070B5064D2C88002CF8
:1010100005D02200044901F03DFC00232B80200074
:1010200070BDC046F40000205C01002010B5040033
:1010300088B01422002103A801F035FC174B226868
:101040009A4201D008B010BD8020154BC0019969AB
:101050000143996180219A69890202400192019AB3
:101060005A6990200A435A615B69C0050B4002939C
:10107000029B0C2303930A3B04930133069303A9B9
:10108000023B079300F0CEF9012200211B2000F063
:1010900063F81B2000F092F8D4E7C0460038014006
:1010A0000010024010B50400FA200E4B80001978A1
:1010B000FFF72AF80C4B01001868FFF725F800F03D
:1010C00089F80123002801D1032C01D9180010BD93
:1010D00000222100013800F03FF8044B1C6000237F
:1010E000F4E7C0461C00002018000020200000206B
:1010F0001021064A10B5136800200B431360FFF758
:10110000D1FFFFF70BFF002010BDC04600200240BA
:10111000034A044B11681B785B1813607047C04684
:10112000200200201C000020014B18687047C046B8
:101130002002002070B50400FFF7F6FF0500631CD5
:1011400002D0044B1B78E418FFF7EEFF401B8442EB
:10115000FAD870BD1C00002070B5002814DB154BB8
:1011600003229C46FF23850810401A00C026C000B9
:10117000890182400B408340AD006544B600AC5904
:1011800094432343AB5170BD0F22C0B20240083AD2
:101190009208094B9200D3180324FF222040140028
:1011A000C0008901844011408140DD69A543294385
:1011B000D961E8E700E100E000ED00E0002805DB90
:1011C0001F2318401E3B8340014A13607047C046EE
:1011D00000E100E00A4A431E012093420ED8C021DC
:1011E000084A09485360036A09061B021B0A0B439D
:1011F0000362002300209360073313607047C046EA
:10120000FFFFFF0010E000E000ED00E010B5FFF789
:1012100085F810BD212330B5C25C022A06D0002219
:101220001D3B83631C33C254012030BD0E24026871
:10123000056C1168A1431160012114688C4314608E
:101240000C00AC40C26B5460C15400222023C25435
:101250000020EAE7212370B5C25C022A03D01D3BBF
:101260008363012070BD0E240268056C1168A143E0
:101270001160012114688C4314600C00AC40C26BF7
:101280005460C15400222023C254436B002B02D06F
:1012900098470020E6E70020E4E7C0467047C046D4
:1012A0007047C046F8B5534B534CDA68D2061AD48F
:1012B000DB685B0717D420234E4DEA68134203D046
:1012C000EB602378002B2FD12378DBB2002B09D1E0
:1012D0000720484A1169814311611169474801405B
:1012E00011612376F8BD01235B42A068A360414BE6
:1012F000DB68DB0611D4042100233E4AD268520782
:1013000004D50122E3691343E3610B00394AD3603A
:10131000FFF7C6FF00232370CDE70222E369142103
:101320001343E3611023E8E72378012B22D02378CD
:10133000022B50D06368013B63606368002B2FD0A1
:10134000A3680233A360A668206961690B0C0F04CF
:101350000121020C3A43226163612A698A432A61AE
:10136000226963690023E3612B6992B20B432B610D
:101370003280A9E76368013B63606368002B1FD07C
:10138000A068FFF78BFF8023DB009C460222A06849
:101390006044A0602B6993432B6100F031F893E720
:1013A0002378032B21D02378A068042B0FD0063894
:1013B000FFF774FF01235B42A3600023237083E7E0
:1013C00001204042A0602370FFF768FF7CE70238ED
:1013D000FFF764FFEEE704222B69002093432B61A3
:1013E000FFF75CFF002323706EE7A068FFF756FF4E
:1013F000E0E7C0460020024028020020FFEBFFFF8C
:1014000000220221054BDA61054B1A690A431A6171
:1014100058611A693E310A431A6170472802002058
:1014200000200240F0B54546DE4657464E46E0B540
:101430000B6887B09C4600250022002B00D1DAE023
:10144000774B66469B46774B01919A4667E00323AC
:10145000AB40DF43C468019B3C40A4469C680297B4
:10146000AC4067463C43C4600468029B23400324AD
:101470000C40AC402343036080235B05194249D0F4
:101480005B4601249B690F2723435C46A361A36944
:1014900001242340644C0593A44603241440A40073
:1014A000A740059B93089B0063449E68BE4390271A
:1014B000FF05B84200D1A5E05C4FB84200D1A3E0DF
:1014C0005B4FB84200D1A3E05A4FB84200D1A3E02D
:1014D0000527A7403C0034439C6053464C461B689C
:1014E000E643CC036ED454463340236064688B03D8
:1014F0006FD4534634405C609C68CB0270D4534632
:1015000034409C60DB68890271D433405146CB6023
:10151000019B1E68330001320235D3406BD0012499
:101520003300944023409946F4D0019B102759681A
:101530000B00BB439846013B012B88D883689C462F
:101540000323AB406746DB431F4002933B00019FF0
:10155000FF68AF40BC461F0063461F438760436877
:101560001F000123A7430C091C4094403C434460E6
:10157000C468029B1C40A446019B9C686346AC4027
:101580001C434346C460022B00D06DE7D408A4007E
:101590000419236A0394984607231F001740BB00D1
:1015A0000F2744469F409C46019BBC43A0461C69B4
:1015B00063469C40A446444663461C432300039C68
:1015C000236251E74C4623435446236064688B03EF
:1015D0008FD54B461C4353465C609C68CB028ED52E
:1015E0004B461C4353469C60DB6889028DD54946B7
:1015F00019430B008AE707B03CBC90469946A246C7
:10160000AB46F0BD002466E70127A7403C0062E737
:101610000227A7403C005EE70327A7403C005AE7AB
:101620000010024000040140000001400004004896
:1016300000080048000C004800690840411E88412D
:10164000C0B27047002A01D1816270478161FCE716
:101650000B00426913401B04914319438161704799
:1016600070B5041E1ED00368114A1A60114A1A6030
:1016700042685A6082689A60FFF756FD050004E0F0
:10168000FFF752FD401B26280AD82368DA68002A93
:10169000F6D11969E268914206D000201A6170BD46
:1016A0000320FCE70120FAE7034A00201A60F6E76E
:1016B000CCCC000055550000AAAA00000368024ADD
:1016C00000201A607047C046AAAA0000F0B5CE46B6
:1016D000474680B5040083B0002800D1E8E00368E5
:1016E000DA072FD50C22C44841681140042900D1E3
:1016F00032E141680A40082A00D129E16368012BE0
:1017000000D163E1002B00D1F7E0052B00D102E20C
:10171000B94BBA491A680A401A601A68B8490A40AF
:101720001A60FFF701FD80250700B34EAD0205E00A
:10173000FFF7FAFCC01B642800D907E133682B428D
:10174000F6D023689A0729D50C22AB494868024293
:1017500000D1A6E048680240082A00D19DE0E36875
:10176000A54D002B00D11EE101222B680226134358
:101770002B60FFF7D9FC070005E0FFF7D5FCC01B85
:10178000022800D9E2E02B681E42F6D0F8212A6830
:1017900023698A43DB0013432B6023681A072DD487
:1017A0005A0744D580220020934B5205D9698046C0
:1017B000114208D1D9691143D961DB691A400192FC
:1017C000019B0123984680278E4E7F0033683B4261
:1017D00000D1ABE0A368012B00D122E1002B00D1A6
:1017E000C4E0052B00D138E10121834B1A6A8A43FA
:1017F0001A621A6A03318A431A6216E1E3697E4D5E
:10180000002B5BD001226B6A022613436B62FFF749
:101810008BFC070005E0FFF787FCC01B022800D9FE
:1018200094E06B6A1E42F6D023685A07BAD4DB06EE
:1018300012D56369012B00D179E1053300D0CCE0EA
:101840000421F8206C4A536B8B435363516BA3699B
:101850008143DB000B435363236A002B1BD00C2214
:10186000654D69680A40082A00D100E1022B00D1C9
:1018700019E12B68644A802413402B60FFF754FC65
:10188000A404060004E0FFF74FFC801B02285DD88B
:101890002B682342F7D100200BE04A68D20300D521
:1018A0005DE7554A126892071BD5E268012A18D0F5
:1018B000012003B00CBC90469946F0BD01226B6A32
:1018C000022693436B62FFF72FFC070004E0FFF74B
:1018D0002BFCC01B022839D86B6A1E42F7D1236843
:1018E000A3E7F825444822690168D200A9430A43C6
:1018F00002601A0700D453E780E73F4D3F4A2B6848
:10190000802613402B602B683D4AB60213402B60A3
:10191000FFF70AFC070004E0FFF706FCC01B642881
:1019200014D82B683342F7D123680BE733683B4365
:101930003360FFF7F9FB050004E0FFF7F5FB401B00
:10194000642803D833683B42F7D043E70320B0E76D
:101950004268D20300D4D1E6274A1268920300D429
:10196000F0E66268002A00D0ECE6A1E70122224EF0
:101970000227336A254D93433362336A033293431C
:101980003362FFF7D1FB814605E0FFF7CDFB4B4605
:10199000C01AA842DAD8336A1F42F6D14346012B57
:1019A00054D0236843E701222B68022693432B601F
:1019B000FFF7BAFB070004E0FFF7B6FBC01B0228E5
:1019C000C4D82B681E42F7D12368E7E680230A4A71
:1019D0005B0211680B431360A3E60422064D022646
:1019E0006B6B13436B636B6B033A93436B63FFF750
:1019F0009BFB070011E0C04600100240FFFFFEFF06
:101A0000FFFFFBFF00700040FFFFFFFE8813000098
:101A1000FFF78AFBC01B022898D86B6B1E42F7D1D8
:101A20001AE752490A6A13430B62FFF77DFB4F4FD7
:101A3000814602264E4D05E0FFF776FB4B46C01A65
:101A4000A84283D83B6A1E42F6D0A7E7474A4949D5
:101A5000D3690B40D3612368E9E60421434B1A6A3A
:101A60000A431A621A6A03390A431A62DDE7012B34
:101A700000D11DE780236A68E96A656A5B0213404A
:101A80000120AB4200D014E70F230B40E16A8B42E8
:101A900000D00EE7F02080030240A06A101A421E18
:101AA0009041C0B205E72B68334A802613402B6073
:101AB000FFF73AFBB604070005E0FFF735FBC01B54
:101AC000022800D942E72B683342F6D10F22EB6A95
:101AD0009343E26A1343EB62616AA36A6A680B4349
:101AE000264980240A4013436B6080232A685B04E4
:101AF00013432B60FFF718FB1C4D0600A40405E000
:101B0000FFF712FB801B022800D91FE72B68234236
:101B1000F6D00020CDE68022144BD20219680A4389
:101B20001A608022196852020A431A60F9E50421FA
:101B30000E4D02266A6B0A436A636A6B13436B633A
:101B4000FFF7F2FA070005E0FFF7EEFAC01B0228E4
:101B500000D9FBE66B6B1E42F6D0F8216A6BA369D5
:101B60008A43DB0013436B6376E6C04600100240F5
:101B700088130000FFFFFFEFFFFFFFFEFFFFC2FF24
:101B8000F0B5CE46474680B5040089B00D00002868
:101B90000DD001234D490A681A40AA420DD20A68A5
:101BA0009A432A430A600A6813409D4205D00120E7
:101BB00009B00CBC90469946F0BD23689A070ED533
:101BC0005A0705D5E0224249D200486802434A60DC
:101BD000F0203F494A688243A06802434A60DB071D
:101BE00021D53B4B62681B68012A67D0022A60D06E
:101BF0009B07DCD50321364E0C2773688B431343B8
:101C00007360FFF791FA334B8146984605E0FFF782
:101C10008BFA4B46C01A40454ED8726863683A400A
:101C20009B009A42F3D10121284A13680B409D4240
:101C300005D213688B43136013681942B7D1236828
:101C40005B0706D5224A244953680B40E1680B43E1
:101C50005360224B6A46180070C870C20068103387
:101C6000106004AA100070CB70C01B68184D036090
:101C70000C23686869460340082B0BD10733840C9A
:101C80001C400C5DE96A0B40D15CC30319D41448B5
:101C9000604300E013480E4B134A5B681B061B0FA2
:101CA000D35CD840114B18600020FFF7FBF90020EF
:101CB0007EE79B019ED47AE7032079E79B0399D4C2
:101CC00075E70848FEF720FA6043E4E70020024089
:101CD0000010024088130000FFF8FFFFD028000822
:101CE00000093D0000127A002C290008180000208D
:101CF00070B5154B88B018006A4670C870C200688D
:101D00001033106004AA100070CB70C01B686946C5
:101D100003600C230D4844682340082B0BD1073384
:101D2000A50C1D404D5DC16A0B40D15CE30305D499
:101D30000748684300E0074808B070BD0548FEF753
:101D4000E3F96843F8E7C046D028000800100240D5
:101D500000093D0000127A00044B054A5B685B05F0
:101D60005B0FD35C034A1068D840704700100240F4
:101D70003C29000818000020F0B5CE46474680B543
:101D8000036883B00400DA0339D5802200203D4B7C
:101D90005205D9698046114208D1D9691143D961E8
:101DA000DB691A400192019B012398468026364D3B
:101DB00076002B6833424CD0C021324D89002A6A0C
:101DC0000A4044D0606801408A420ED08022296ACD
:101DD0002E6A520232432A622A6A2C4B2C4E0B4046
:101DE00032402A622B62CB0722D4264A2749136A43
:101DF0000B40034313624346012B3AD02368DA07B2
:101E00000ED400209B0606D510211E4A136B8B436F
:101E1000E1680B43136303B00CBC90469946F0BDD8
:101E2000032018490A6B8243A06802430A63E8E76B
:101E3000FFF77AF9174B07000226994604E0FFF7EF
:101E400073F9C01B48451AD82B6A1E42F7D0606848
:101E5000CBE72B6833432B60FFF766F9070004E0FC
:101E6000FFF762F9C01B642809D82B683342F7D00A
:101E7000A2E7D36908490B40D3612368BFE7032079
:101E8000C9E7C0460010024000700040FFFCFFFFA1
:101E9000FFFFFEFF88130000FFFFFFEFF0B557467E
:101EA0004E464546DE46E0B51F00836F050083B011
:101EB0000E0014000220202B06D003B03CBC90463C
:101EC0009946A246AB46F0BD002900D18DE001380D
:101ED000002AF2D08023AA685B019A4200D17CE0FC
:101EE0007423EA5C0220012AE7D00122EA5400228E
:101EF0000C33EA505F3BAB67FFF716F95023002223
:101F0000EC520233EC5280230192AA6882465B01B4
:101F10009A4200D1A4E000227423EA54223BEB5AF7
:101F20002A68002B17D0042380249B4680231B01A2
:101F300099467B1C1FD1D3691C42FCD0002E43D094
:101F400033780136138552216B5A013B9BB26B5299
:101F50006B5A002BEAD14023802698463C3B994699
:101F600036017B1C43D14021D3691942FCD0202388
:101F70000020AB67A1E7D36923409846DED1FFF785
:101F8000D3F85346C01A874258D3002F56D059462B
:101F90002A6813681942CCD04946D3690B42C8D08D
:101FA00011621368324903200B4013609368A33118
:101FB000FF318B43936020238022AB67EB67AB50EC
:101FC00042465433EA5478E701990B88DB05DB0D70
:101FD00013850B0002330193B5E72B69002B00D06A
:101FE0007EE7014200D17BE767E7012065E74346D2
:101FF000D4691C40BBD1FFF797F85346C01A8742FB
:102000001CD3002F1AD049462A6813681942A8D059
:10201000D3693342A5D016621368154903200B40DB
:1020200013609368A331FF318B4393602023802298
:10203000AB67EB67AB505433EC543EE72B680C496D
:102040001A6803200A401A609A68A331FF318A4354
:102050009A6020230022AB67EB675433EA542CE7E5
:102060002B69002B00D056E70196002653E7C046A7
:102070005FFEFFFFF0B557464E464546DE46E0B5EB
:102080001F00C36F050083B00E0014000220202B38
:1020900006D003B03CBC90469946A246AB46F0BD84
:1020A000002900D199E00138002AF2D08023AA68E3
:1020B0005B019A4200D188E07423EA5C0220012A85
:1020C000E7D00122EA540023984642468033EA5082
:1020D0005E3BEB672A66FFF727F858238022EC5215
:1020E0000233EC52AB6883465201934200D194E034
:1020F000002B00D085E02B69002B00D187E05C230A
:102100007F22EA5223339A4600230193742300224C
:10211000EA541A3BEB5A002B53D020242A68802320
:102120001B0199467B1C13D1D3691C42FCD0002EA5
:1021300038D0938C524613405A223370AB5A013632
:10214000013B9BB2AB52AB5A002B3AD02A68E6E770
:10215000D36923409846EAD1FEF7E6FF5B46C01AF2
:1021600087423CD3002F3AD004212A6813681942D1
:10217000D8D04946D3690B42D4D0116213682C4998
:1021800003200B4013609368A331FF318B439360AE
:1021900020232022AB67EB676033EA5042460C3BBA
:1021A000EA5476E75146938C0B4001990B808B1CC7
:1021B0005A2101936B5A013B9BB26B526B5A002B15
:1021C000ADD120230020EB6763E72B69002B00D003
:1021D00072E7014200D16FE75BE7012059E72B6806
:1021E00013491A6803200A401A609A68A331FF3124
:1021F0008A439A6020230022AB67EB675433EA548A
:1022000047E75C234246EA5200239A467CE75C2378
:10221000FF22EA52A3339A4676E72B69002BF6D1C8
:102220005C22044B0196AB529A4600266EE7C046EC
:102230005FFEFFFFFF0100007047C0467047C046C9
:1022400000235A2210B5406A8352083A8352FFF79E
:10225000F5FF10BD7047C046F8B5CE464746036847
:10226000934DDA690400196880B598682A4200D154
:1022700071E00125284000D176E00125154206D005
:10228000CE0504D580271D62E6593543E551022568
:10229000154200D18AE0002808D0802704261D625C
:1022A000E5593543E551164200D085E0150705D5BF
:1022B0008D0600D5C2E0002800D0BFE080200001DC
:1022C000024207D04D0105D58025202618626059AD
:1022D0003043605180202058002838D02020104200
:1022E00007D0084205D0626E002A02D02000904735
:1022F0002368802561599A68520603D428260E4027
:1023000000D1AFE01A686B490A401A609A6823311D
:10231000FF318A439A60226E012A00D199E020227F
:10232000E26700224021226662669A68114200D16B
:102330008BE09A68206F8A439A60002800D184E07D
:102340005D4B4363FEF786FF002800D086E00CBC9F
:1023500090469946F8BD2020104209D0084207D087
:10236000636E002B1FD1F2E7544D294200D084E761
:10237000256E012D28D0802010420FD14020104220
:10238000E5D00842E3D01A6882431A602023A3678D
:1023900000232000A366FFF74FFFD8E70842EDD0E7
:1023A000A36E002BD3D020009847D0E7550700D468
:1023B0007CE7002800D179E70425802602271D62EA
:1023C000A5593D43A55171E710261642D3D00E42C0
:1023D000D1D040211E629A680A4048D0206F02681E
:1023E000526892B2002AB2D05827B846E75BB94685
:1023F000BA42ACD25A27E2538269202A15D01A6811
:102400002F4F3A401A609A68AA439A609A688A43A2
:102410009A602022E267002222661A68B2431A609C
:10242000FEF7F8FE4346E35A99465A23E15A4B46D3
:10243000591A89B22000FFF70DFF88E7082680258A
:102440001E6260593043605138E72000FFF7F6FE06
:102450007DE71A680F318A431A6060E7206F436B8B
:10246000984774E72000FFF7E9FE66516FE75A20AE
:10247000215A205A89B2002800D168E75820205AF2
:10248000411A89B2002900D161E71868094F384024
:1024900018609868A84398602020E067226662660A
:1024A0001A682000B2431A60FFF7D4FE4FE7C04617
:1024B0000F080000DFFEFFFF41220008200100049A
:1024C000FFFEFFFF436A30B5DA0706D50168284CE6
:1024D0004A682240846A22434A609A0706D5016806
:1024E000244C4A682240C46A22434A605A0706D5EF
:1024F0000168214C4A682240046B22434A601A0753
:1025000006D501681D4C4A682240446B22434A604C
:10251000DA0606D501681A4C8A682240846B224389
:102520008A609A0606D50168164C8A682240C46BF8
:1025300022438A605A060AD50168134D4A68046C22
:102540002A4022434A6080225203944209D01B064B
:1025500006D502680D4953680B40816C0B435360EC
:1025600030BD4A680A4C2240446C22434A60EEE780
:10257000FFFFFDFFFFFFFEFFFFFFFBFFFF7FFFFFF2
:10258000FFEFFFFFFFDFFFFFFFFFEFFFFFFFF7FFA3
:10259000FFFF9FFFF8B500228023CE464746050087
:1025A00080B5C250FEF7C0FD2B6806001A681207FE
:1025B0000ED41A68520736D420237422AB67EB6717
:1025C000002300202B66AB540CBC90469946F8BD06
:1025D000294A8027904604229146BF03DC693C408B
:1025E000E7D1FEF7A1FD2B68801B1A68404533D860
:1025F00049461142F2D08022D96912011142EDD030
:102600001A621A681D4903200A401A609A68A331A9
:10261000FF318A439A6020238022AB67EB67AB507F
:102620005433EC54D0E7144A802790460422914654
:10263000FF03DC693C40BFD1FEF776FD2B68801BB1
:102640001A68404508D849461142F2D08022D9691B
:1026500012011142EDD0D3E7084903200A401A6065
:102660009A68A331FF318A439A602023AB67EB67F6
:102670005433EC54A8E7C046FFFFFF015FFEFFFFA5
:1026800070B5041E5ED0836F002B00D179E0242347
:1026900001212268A367136825698B431360A3682F
:1026A00010682B436569E1692B43494D0B43284072
:1026B0000343136053684748256A0340E0680343B7
:1026C0005360A36990682B43434D284003439360B4
:1026D000424B80201A6B03231340414A0002D35C13
:1026E000814231D0022B66D050D9042B5ED0082B0A
:1026F00025D1636861685B081818FDF705FD0004C3
:10270000000C0200374B103A9A4218D82368D86060
:1027100000236366A366636A002B43D123683249B2
:102720005A6820000A4008215A609A688A439A60D1
:102730001A6807390A431A60FFF72CFF03E00023E9
:102740006366A366012070BD022B32D03BD9042BF7
:1027500033D080225202082BF1D163685808190047
:102760008018FDF7D1FC03041A0C1E49103A8A4266
:10277000E5D81E4A1B0310405B0F22681843D06047
:10278000C6E774228354FEF751FC80E7002BD6D1B4
:10279000FFF7E2FA0028ACD100236366A366636A00
:1027A000002BBBD02000FFF78DFEB7E7FFF7A0FAA4
:1027B000F0E70F4AD1E70F489BE7FFF799FA0028A7
:1027C000A6D04200C9E7002BB9D1FFF7C5FAF6E75A
:1027D000F369FFFFFFCFFFFFFFF4FFFF0010024090
:1027E00044290008EFFF0000FFF7FFFFF0FF0000A3
:1027F0000024F40000127A000D4885460D480E4969
:102800000E4A002302E0D458C4500433C4188C424A
:10281000F9D30B4A0B4C002301E013600432A242AF
:10282000FBD3FEF7C7FB00F011F8FEF74DFAFEE709
:102830000010002000000020240000205029000883
:102840002800002048020020FEE7000070B50026A6
:102850000C4D0D4C641BA410A64209D1002600F0BB
:102860002BF80A4D0A4C641BA410A64205D170BD7A
:10287000B300EB5898470136EEE7B300EB589847A2
:102880000136F2E7482900084829000848290008CD
:102890004C290008002310B59A4200D110BDCC5C31
:1028A000C4540133F8E703008218934200D1704703
:1028B00019700133F9E70000F8B5C046F8BC08BC50
:1028C0009E467047F8B5C046F8BC08BC9E467047A7
:1028D00002030405060708090A0B0C0D0E0F101061
:1028E0000102030405060708090A0B0C0D0E0F1060
:1028F000AE060008C2070008BC07000888070008E9
:10290000460700080C070008E0060008A9080008B0
:10291000D1090008D5090008D909000839090008BB
:10292000DD090008CD090008A50800080000000026
:10293000000000000102030406070809000000006F
:08294000010203040004080277
:04294800E90000089A
:04294C00C1000008BE
:10295000F4010000E8030000F4010000E8030000B7
:10296000F4010000E803000000127A0001000000FA
:04297000040000005F
:04000005080027F9CF
:00000001FF
